:020000040800F2
:1000000050060020D5000008E1180008FD14000883
:1000100000000000000000000000000000000000E0
:10002000000000000000000000000000FD1B0008B0
:10003000000000000000000029190008FF1B000854
:100040000501000805010008050100080501000878
:100050000501000805010008050100080501000868
:100060000501000805010008A101000805010008BC
:100070000501000805010008050100080501000848
:100080000501000800000000000000000501000854
:100090000000000005010008050100080501000836
:1000A0000000000005010008050100080501000826
:1000B0000501000800000000050100080501000816
:1000C0000348854600F05AF800480047C91F000859
:1000D000500600200C4880F308880C480168090E7F
:1000E0000B4A914205D10B480B4901600B480C4962
:1000F00001600C4880470C480047FEE7FEE7FEE73A
:10010000FEE7FEE7FEE700005006002004000000C6
:100110001F00000018100240010000000000014014
:1001200000000000691C0008C100000830B50B4643
:10013000014600202022012409E00D46D5409D42C1
:1001400005D31D469540491B254695404019154647
:10015000521E002DF1DC30BDD2B201E00270401C15
:10016000491EFBD270470022F6E710B513460A4637
:1001700004461946FFF7F0FF204610BD064C012546
:10018000064E05E0E36807CC2B430C3C984710343F
:10019000B442F7D3FFF798FF8C220008AC22000886
:1001A00010B5024800F02AF810BD0000FC01002044
:1001B00010B504460068054940181421FFF7B6FF42
:1001C000800020640248E06310BD0000F8FFFDBF1E
:1001D0000000024030B5056C0124AC40C56B6C607A
:1001E000046863604368102B036803D0996000685B
:1001F000C26030BD9A600068C16030BDF0B4C16BB0
:100200000D6801680C680422066C1346B3402B424B
:100210000DD063070BD50B689B0602D40B68934384
:100220000B60016C8A40C16B4A60C16A19E0022709
:10023000B74002462F4001232032002F15D0A707D8
:1002400013D50C68A40604D40C680A25AC430C60D2
:100250005370036C02219940C36B596000211170E7
:10026000816A002916D0F0BC08470827B7402F4202
:1002700010D024070ED50C680E25AC430C60046C1E
:100280001946A140C46B61608363537000211170F3
:10029000016BE6E7F0BC704770B5040024D0022083
:1002A000214620310D464870226811680F48A36826
:1002B0000140606826691843E36833431843636963
:1002C0001843A3691843E3691843084310602046A4
:1002D000FFF76EFF0020A062E06220636063A0630E
:1002E00001216970287070BD012070BD0FC0FFFF33
:1002F000F8B504468C46203001780025012909D044
:100300000126067041780027012905D007700225D3
:100310002846F8BD0220F8BD02214170A76320687D
:10032000016849084900016061462046FFF752FF15
:10033000E06A00282068016802D00E22114306E01E
:100340000A22114301602068016804229143016080
:100350002068016831430160DAE731B500F0B0F898
:10036000009C0546601C00D0641C00F0A9F8401BEE
:10037000A042FAD338BD0000F8B5002389E001247B
:100380009C402A46A44622407ED04C68022C01D0D4
:10039000122C0CD1DC08A40027183C6A5D07ED0E76
:1003A0000F26AE40B4430E69AE4026433E62056858
:1003B0005E000324B4400F79A543BF07BF0FB740C9
:1003C0002F4307604D68012D05D0022D03D0112D5C
:1003D00001D0122D0ED18568CF68A543B7402F43B9
:1003E000876047686546AF430D79ED06ED0F9D4088
:1003F0003D434560C568A5438C68B4402C43C46048
:100400004C68E40044D5264CA56901263543A56116
:10041000A4699D0834400094224CAD002F19BC689B
:100420009D072E0F0F25B540AC430925ED06A842C8
:1004300001D100250AE01C4DA84201D1012505E0AB
:100440001A4DA84201D1022500E00525B5402543FB
:10045000BD60174C25684E689543F60300D51543DB
:10046000256065684E689543B60300D51543656001
:10047000A5684E689543F60200D51543A560E5686A
:100480004E689543B60200E002E000D51543E560F2
:100490005B1C0A681546DA4000D070E7F8BD000022
:1004A000001002400000014000040048000800481D
:1004B000000401400069084000D00120704700009E
:1004C00001480068704700000000002070B504007B
:1004D0000FD021681348086021681348086003CCD6
:1004E00041602068083C21688860FFF7E9FF054605
:1004F00008E0012070BDFFF7E3FF401B272801D96A
:10050000032070BD2068C0680028F4D1206802690B
:10051000E1688A4201D0016101E0044901600020E4
:1005200070BD0000CCCC000055550000AAAA000008
:10053000006802490160002070470000AAAA00007C
:1005400002480168491C016070470000000000205B
:1005500010B506480168102211430160002000F028
:1005600007F800F017F8002010BD0000002002403E
:1005700010B5044600F0F0F87D21C900FFF7D6FD64
:1005800000F058FD00222146501E00F029F80020FE
:1005900010BD000008B50C4881690122114381613A
:1005A00080691040002200901146501F00F018F89A
:1005B00000221146901E00F013F800221146501E32
:1005C00000F00EF808BD000000100240C106C90E80
:1005D00001208840014908607047000000E100E008
:1005E00010B501F07FF910BDBFF34F8F04490348E8
:1005F000C860BFF34F8F00BFFDE700000400FA059D
:1006000000ED00E0F8B505464E480E460068C0070C
:10061000C00FB0420AD24B48016849084900314333
:1006200001600068C007C00FB04270D12878464C06
:10063000800705D56068F0218843A9680843606099
:100640002878C00753D06868012817D0022818D02E
:10065000032819D021688907002958DA61688908B8
:10066000890001436160FFF72BFF69680746012994
:1006700013D002291DD0032927D034E02168890333
:10068000EAE721688901E7E7616BC903E4E7FFF75F
:1006900017FFC11B2D48814223D860680007800FD7
:1006A0000128F4D123E0FFF70BFFC11B274881424B
:1006B00017D860680007800F0228F4D117E0FFF711
:1006C000FFFEC11B214881420BD860680007800FE4
:1006D0000328F4D10BE0FFF7F3FEC11B1B48814256
:1006E00001D90320F8BD60680007800FF3D11548D9
:1006F0000168C907C90FB1420BD90168490849000F
:10070000314301600068C007C00FB04201D0012032
:10071000F8BD2878400706D560680721090288439C
:10072000E9680843606000F01DF86168084A09063E
:10073000090F515CC840074908600020FFF718FF07
:100740000020F8BD00200240001002408813000085
:100750007C22000804000020014800687047000067
:100760000400002030B516A30FCB89B06C460FC42F
:1007700017A30FCB0FC41A494A680C201446044033
:100780001848042C05D0184B082C04D00C2C00D190
:10079000184609B030BD9402240F6D462C5DC96A1D
:1007A00004AD0907090FD203695C920F022A02D037
:1007B000032A00D11846FFF7B9FC6043E9E70000BF
:1007C00002030405060708090A0B0C0D0E0F101092
:1007D0000102030405060708090A0B0C0D0E0F1091
:1007E0000010024000127A00006CDC02FEB50446E4
:1007F0000078F04EF04DC00748D068680007800FC1
:1008000001281FD068680007800F022804D168689B
:10081000C003800F022815D06168012919D001207A
:100820008004002901D0052917D02968B143296027
:10083000296881432960606800281BD0FFF740FECB
:10084000074613E02868800320D56068002876D02A
:100850001CE0286830432860EDE7296801432960DF
:10086000F7E7FFF72DFEC01B642869D828688003CE
:10087000F7D50BE0FFF724FE074604E0FFF720FE64
:10088000C01B6428F1D828688003F7D4207880073B
:100890003ED568680007800F14D068680007800F95
:1008A000022804D16868C003800F01280AD0E068DC
:1008B000002828681DD0012108432860FFF700FEAA
:1008C00007460BE0286880070BD5E068012836D181
:1008D00007E0FFF7F5FDC01B0228C6D8286880078F
:1008E000F7D52868F82188432169C90008432860A2
:1008F0000EE0400840002860FFF7E2FD074604E0F4
:10090000FFF7DEFDC01B0228AFD828688007F7D4A8
:100910002078000724D5E0690028686A11D00121F9
:1009200008436862FFF7CCFD074604E0FFF7C8FD07
:10093000C01B022899D8686A8007F7D510E036E115
:10094000D1E0400840006862FFF7BAFD074604E0C6
:10095000FFF7B6FDC01B022887D8686A8007F7D466
:10096000207804274007002861DA00200190E86918
:10097000C00008D4E969B8060143E961E9690140AA
:100980000120009101908D480168C90511D40168CA
:10099000821511430160FFF793FD009005E0FFF71A
:1009A0008FFD0099401A642897D884480068C005D4
:1009B000F5D5A06801280AD0002801D0052811D05B
:1009C000286A400840002862286AB84302E0286A82
:1009D000012108432862A068002812D0FFF770FDAB
:1009E00000900AE0286A38432862F0E7FFF768FDC4
:1009F0000099411A7248814275D8286A8007F5D556
:100A00000DE0FFF75DFD009006E0FFF759FD00994E
:100A1000411A6B48814266D8286A8007F5D401984C
:100A2000002804D0E969012000078143E9612078AA
:100A3000C00635D5606901280CD0401D686B24D0F4
:100A400038436863686B400840006863FFF738FD0F
:100A5000074622E0686B38436863686B01210843EE
:100A60006863FFF72DFD074604E0FFF729FDC01B73
:100A7000022838D8686B8007F7D5686BF82188435F
:100A8000A169C900084368630AE0B8436863F4E7F2
:100A9000FFF716FDC01B022825D8686B8007F7D426
:100AA0002078800637D568680007800F032813D0A8
:100AB00068680007800F022804D16868C003800FAF
:100AC000032809D0206A0028686B16D03043686379
:100AD000FFF7F6FC06460CE0686BC0031BD5206AE6
:100AE000012864D117E05BE0FFF7EAFC801B0228D5
:100AF00056D8686BC003F7D50DE0B0436863FFF7C5
:100B0000DFFC064604E0FFF7DBFC801B022847D829
:100B1000686BC003F7D4606A002846D0696809078B
:100B2000890F022943D0012636060228286805D0FD
:100B3000B0432860FFF7C4FC044633E0B0432860AC
:100B4000FFF7BEFC074604E0FFF7BAFCC01B022813
:100B500026D828688001F7D4E86A216B00090001D3
:100B60000843E862A16AE06A084369687B22D2030D
:100B7000914308436860286830432860FFF7A0FC71
:100B8000044604E0FFF79CFC001B022808D82868F4
:100B90008001F7D509E0FFF793FC001B022801D97B
:100BA0000320FEBD28688001F5D40020FEBD012091
:100BB000FEBD000000000100001002400070004077
:100BC000881300007047F8B5040007D000262546BA
:100BD0004035A662687F002802D005E00120F8BDFC
:100BE0002E77204600F04CF802236B7720680168CE
:100BF0004022914301600721E0680902884201D93F
:100C0000002201E0012212030F273F02B84202D066
:100C1000884200D0A662276B002F05D1884201D9F7
:100C2000236301E001202063A168606863690843D1
:100C30002169194308430123A1695B021940084354
:100C4000E1690843216A0843A16A084321680860F2
:100C5000616B606AA36908431B0C0427E1683B4091
:100C6000194308432168104348602068C1697A022B
:100C70009143C1612666012068770020F8BD00001D
:100C800070B506460068194986B088422CD11848CC
:100C9000826981140A4382618069002508400590B9
:100CA000144800900220019003200390092002952F
:100CB00069460495C006FFF75FFB0F480F4C21C43F
:100CC0002560A560E560802025616060800160612D
:100CD0000A48083CFFF7E0FA002803D06D2108A07D
:100CE00001F062F9B465666206B070BD0030014083
:100CF00000100240E08000001C000240FC010020C7
:100D00002E2E2F5372632F73746D333266307878C2
:100D10005F68616C5F6D73702E630000F8B5044608
:100D20008068254600274035002803D16368DE1F10
:100D3000FD3E0AD02B7F012B0FD001232B776B7F39
:100D40000026012B0BD002276FE0042068771346A2
:100D50000A46204600F090F8F8BD0220F8BD0029B0
:100D600024D0002A22D004236B7726662164AA802F
:100D7000EA80E6642665A687E6875903884204D19F
:100D8000206801681A0391430160206842680121CC
:100D900049038A4342600723E2681B0248109A42D3
:100DA00006D921684A6882434A601AE001273CE07C
:100DB0002268536803435360A26D012352699B026A
:100DC0009A420ED12268536883435360E888C00773
:100DD000206842682CD00A434260E8884008401CE2
:100DE000E880A16D1548C862A16D15488862A16DA3
:100DF00014480863A06D4663EB882168226C0C31AF
:100E0000A06DFFF775FA20680168490603D40168F0
:100E10004022114301602068416820221143416053
:100E2000206841680122114341602E773846F8BDA1
:100E30008A434260E8884008D2E700004D19000864
:100E4000611900082B19000810B5084800784008FF
:100E5000552801D0FFF7C8FB044801F017F910220C
:100E600002490348FFF75AFF10BD0000400200206E
:100E70001800002070470000F8B5054604464035CC
:100E8000287F0026944601280CD001202877687F0F
:100E9000676801280CD0FA1FFD3A07D1A268002A22
:100EA00004D101E00220F8BD042801D002268FE021
:100EB000002926D06046002823D0002B21D0687F4F
:100EC000042801D00520687700272766A163A3873F
:100ED000E38760462064AB80EB80E7642765206889
:100EE0004168032252039143416007220120E168D7
:100EF00012020003914221684A6804D982434A6081
:100F00002BE0012664E002434A60616D4A690121D9
:100F100089028A420BD1A18FCA07226836495368D9
:100F20005AD00B435360E18F4908491CE187A16DFA
:100F30004A69012189028A420FD121684A688243A5
:100F40004A60E888C10721682C484A6849D00243B2
:100F50004A60E8884008401CE880687F042845D043
:100F6000A16D2748C8622748A16D8862A16D2648F7
:100F70000863A06D4763EB882168226C0C31A06D7B
:100F8000FFF7B6F920684168012211434160606DA6
:100F9000C762606D8762606D0763606D4763E38F52
:100FA0002268A16B0C32606DFFF7A2F9206801681E
:100FB000490603D40168402211430160206841685A
:100FC00020221143416020684168022211434160A0
:100FD000002028773046F8BD8B435360E18F4908E5
:100FE000A4E782434A60E8884008B5E7A16D074856
:100FF000C8620748B8E70000004000000020000079
:1010000057190008B91900082B1900084D190008D4
:1010100061190008704770470422044904280869D0
:1010200002D09043086170471043FBE700E000E006
:1010300070470000094910B5401E884201D90120BF
:1010400010BD074C60610321081F00F04BFC00201D
:10105000A06107202061002010BD0000FFFFFF00FD
:1010600000E000E010B5FFF7E3FF10BD70B50346E8
:1010700020331A7F012A27D001241C7702225A77B5
:101080000326CA683602B2438E6800253243A602A0
:10109000B2434E6800683243E602B2430E68324300
:1010A0002603B2430E6932436603B2434E6989692F
:1010B0003243A603B2430A43E603B2430A434264FF
:1010C0005C771D77002070BD022070BD70B50246B0
:1010D0002032137F012B1BD0012313770224547776
:1010E000046865687026B5436560046865680E68C5
:1010F000354365600468A5688026B543A56000682F
:10110000846849680C43846053770020107770BD71
:10111000022070BD10B504460068042200F01FFED6
:101120002068416C0122D2031143416420680168A8
:10113000012211430160002010BD70B5040005D0EC
:1011400025462035687F002802D006E0012070BDCA
:1011500000202877204600F00BF802206877211D38
:10116000206800F0AFFD01206877002070BD00000E
:1011700008B51A4A01681A48914202D18269C1141D
:1011800027E001229207914207D1C1690122114350
:10119000C161C0691040009008BD124A914202D15D
:1011A000C269022104E0104A914205D1C269891541
:1011B0000A43C261C0690FE00C4A914203D18269BF
:1011C0000121490405E00A4A9142E5D182690121E1
:1011D00089040A43826180690840DCE7002C0140F1
:1011E0000010024000040040002000400044014084
:1011F000004801400222014620314A770268136804
:10120000012003431360487700207047F8B5054676
:1012100004462035287F012817D001272F77022088
:101220006877226890687726FF23B0431B029843B3
:1012300090600868502837D00EDC202857D006DC94
:1012400000284ED0102840D14EE00220F8BD3028B2
:1012500050D0402839D13CE060282DD0702817D0DC
:1012600001221203801A0ED090422ED1CB684A6818
:101270008968206800F07EFD206881680122920361
:101280001143816021E020688168C908C900F8E73E
:10129000CB684A688968206800F06CFD216888681E
:1012A000B0433043886010E0CA684968206800F0A5
:1012B00057FE5021206806E0CA684968206800F09F
:1012C00060FE6021206800F060FD6F7700202877C5
:1012D000F8BDCA684968206800F042FE40212068D5
:1012E000F1E700212068EEE710212068EBE72021DC
:1012F0002068E8E730212068E5E7000070B5016864
:10130000254A092000240225C00686B0914207D153
:101310000D2109020294019504950394009128E09F
:10132000012292071D4E91420ED10D21009102948F
:101330000195049503946946FFF71EF8082023E001
:10134000FFF71AF806B070BD154A914207D1332055
:1013500000900120029401950394049019E0114A31
:10136000914208D110210091042102940195039427
:1013700004916946E4E70C48814201D1801503E0FD
:101380000A488142DED1802002940195049503949D
:10139000009069463046D3E7002C01400004004825
:1013A000000400400020004000440140004801408B
:1013B000F8B5064604462036307F0D4601280DD08C
:1013C00001203077022070770427002A08D0042AF1
:1013D00016D0082A2AD00C2A4DD137E00220F8BDB9
:1013E000206800F0DBFC20688169082211438161DC
:1013F00020688169B9438161206881692A6912E0A6
:10140000206800F007FD206882690121C9020A43B3
:101410008261206881690122920291438161206882
:1014200081692A6912021143816124E0206800F079
:101430002BFD2068C26908210A43C2612068C16986
:10144000B943C1612068C1692A6912E0206800F0CF
:1014500057FD2068C1690122D2021143C161206891
:10146000C269012189028A43C2612068C1692A696F
:1014700012021143C1610120707700203077F8BD5E
:1014800070B5040005D025462035687F002802D0BD
:1014900006E0012070BD00202877204600F00AF801
:1014A00002206877211D206800F00CFC012068777D
:1014B000002070BD7047000010B50446006801228E
:1014C00000F042FC0A482168814205D00948814267
:1014D00002D00948814204D1486C0122D203104352
:1014E000486420680168012211430160002010BD9A
:1014F000002C01400044014000480140FEE700008C
:1015000010B50D480B490160002141608160016107
:10151000416181610722016212024162C2608162FF
:1015200007220163C2624163FFF74DFB002800D030
:10153000FEE710BD003001401800002010B516482D
:1015400088B0144901600F210024C9018460416002
:1015500004617F218461C160FFF7EFFD002800D0A6
:10156000FEE70D48FFF78CFF002800D0FEE7602063
:101570000090019402940022694604940648FFF703
:1015800017FF002800D0FEE70348FFF7B7FE08B0BA
:1015900010BD0000002000403C01002010B5204894
:1015A0008EB01E4901600F210024C9018460416092
:1015B000046144617F218461C160FFF7BEFD0028A2
:1015C00000D0FEE71648FFF75BFF002800D0FEE7DB
:1015D00060200594019400900294039404940022E6
:1015E000694606940E48FFF7E3FE002800D0FEE7A8
:1015F00001200794400308940C9009940A940B94DA
:1016000007A90D940648FFF731FD002800D0FEE73A
:101610000348FFF773FE0EB010BD00000044014008
:101620007C01002010B520488EB01E4901600F21BA
:101630000024C90184604160046144617F218461A8
:10164000C160FFF77AFD002800D0FEE71648FFF7DB
:1016500017FF002800D0FEE7602005940194009059
:101660000294039404940022694606940E48FFF7FE
:101670009FFE002800D0FEE7012007944003089455
:101680000C9009940A940B9407A90D940648FFF74F
:10169000EDFC002800D0FEE70348FFF72FFE0EB058
:1016A00010BD000000480140BC01002010B53148C9
:1016B00094B02F4901600F210024C901846041606A
:1016C000046144617F218461C160FFF736FD002819
:1016D00000D0FEE7012000030E900EA92548FFF779
:1016E00095FD002800D0FEE72248FFF7C9FE00283C
:1016F00000D0FEE7129412A91E481394FFF7E6FCEF
:10170000002800D0FEE76020059401940090029428
:10171000039404940022694606941648FFF748FE95
:10172000002800D0FEE7082269461248FFF740FE75
:10173000002800D0FEE70C2269460E48FFF738FE6D
:10174000002800D0FEE701200794400308940C9085
:1017500009940A940B9407A90D940648FFF786FC98
:10176000002800D0FEE70348FFF7C8FD14B010BD05
:10177000002C01407C00002010B501212A488EB0C9
:10178000890701600F210024C90184604160046160
:101790007F218461C160FFF7D0FC002800D0FEE704
:1017A00001200003079007A91F48FFF72FFD00281D
:1017B00000D0FEE71C48FFF763FE002800D0FEE7DC
:1017C0000B940BA918480C94FFF780FC002800D05C
:1017D000FEE7602000900194029400226946049480
:1017E0001148FFF7E5FD002800D0FEE70422694616
:1017F0000D48FFF7DDFD002800D0FEE7082269460E
:101800000948FFF7D5FD002800D0FEE70C22694605
:101810000548FFF7CDFD002800D0FEE70248FFF79E
:101820006DFD0EB010BD0000BC00002010B52B48AF
:101830008EB0294901600F210024C90184604160F4
:1018400004617F218461C160FFF777FC002800D02C
:10185000FEE701200003079007A92048FFF7D6FC08
:10186000002800D0FEE71D48FFF70AFE002800D040
:10187000FEE70B940BA919480C94FFF727FC0028EE
:1018800000D0FEE760200090019402940022694697
:1018900004941248FFF78CFD002800D0FEE70422D4
:1018A00069460E48FFF784FD002800D0FEE70822B5
:1018B00069460A48FFF77CFD002800D0FEE70C22AD
:1018C00069460648FFF774FD002800D0FEE703488C
:1018D000FFF714FD0EB010BD00040040FC00002016
:1018E000704700008307FF22DB0E9A408907090E2C
:1018F000994000280BDA0007000F083883080848D1
:101900009B001818C36993430B43C3617047830856
:1019100004489B001B1818689043084318607047E0
:1019200000ED00E000E400E0704710B5406A016897
:101930004A68920892004A60016E102211430166C3
:1019400001225D210A54FFF73DF910BD10B5406A30
:10195000FFF790FA10BD10B5406AFFF75CFB10BDB1
:1019600070B50546446AFEF7ABFD0246286800687C
:1019700080061DD4206841682025A9434160206865
:1019800041688908890041606421204600F043F8DD
:10199000002800D02566002120464030C18001216A
:1019A0004177206E002803D02046FFF70BF970BD69
:1019B0002046FFF749FA70BD70B50546446AFEF748
:1019C0007FFD024628680068800620D420684168B0
:1019D0002025A94341606421204600F058F80028E2
:1019E00002D0206E2843206620684168890889005B
:1019F00041600021E18720464030C18001214177CC
:101A0000206E002803D02046FFF7DCF870BD20468A
:101A1000FFF700FB70BDF7B504464068FF260536AA
:101A200082B01546B0420CD10121A068C90388429A
:101A300002D04911884204D12068016840229143B4
:101A400001600095002280212046039B00F090F861
:101A50002027002813D16068B04216D1A068B902CF
:101A6000884202D0491188420FD1032100950022FB
:101A700049022046039B00F030F8002805D0206E74
:101A800038432066032005B0F0BD0020FBE7F8B521
:101A90000F460B4615460092032104460022C90258
:101AA00000F01BF82026002812D13B46002280219E
:101AB0002046009500F05CF8002809D103213B4640
:101AC000002249022046009500F007F8002803D0C4
:101AD000206E304320660320F8BDF8B51D4617463A
:101AE0000E4604463DE0032149028E4205D1002FF7
:101AF00003D1017B684601700078681C31D0002D4D
:101B000005D0FEF7DDFC0699401AA84229D32068CB
:101B10004168E022914341606068C11FFD390CD1EA
:101B20000121A068C903884202D04911884204D12A
:101B3000206801684022914301600120A16A4003AE
:101B4000814207D121680A6882430A6021680A68D5
:101B500002430A6001204034607700202077032090
:101B6000F8BD206881683140B942BCD10020F8BD81
:101B7000F8B51D4617460E46044633E0681C31D0C2
:101B8000002D05D0FEF79CFC0699401AA84229D3E7
:101B900020684168E022914341606068C11FFD39BF
:101BA0000CD10121A068C903884202D049118842A2
:101BB00004D1206801684022914301600120A16A9C
:101BC0004003814207D121680A6882430A60216884
:101BD0000A6802430A6001204034607700202077C1
:101BE0000320F8BD206881683046884304D0002077
:101BF000B842C3D10020F8BD0120F9E7704710B505
:101C0000FEF79EFCFFF72EFA10BD10B592B028200B
:101C10000090012008900024079009946846FEF780
:101C2000E5FD002800D0FEE707200D9003200E9070
:101C30000F94012110940DA8FEF7E4FC002800D0B9
:101C4000FEE7FEF789FD7D21C900FEF76FFAFFF779
:101C5000F1F90420FFF7E0F900221146501EFEF7CB
:101C6000BFFC12B010BD00001348016801221143EF
:101C700001604168114A114041600168104A1140F9
:101C800001600168012292049143016041683F2292
:101C9000120491434160C16A09090901C162016BE3
:101CA000FF22D43291430163416B490849004163EB
:101CB0000021816070470000001002400CB8FF084E
:101CC000FFFFF6FEF0B502681A4B0124A4071A4D77
:101CD000984203D0A04201D0A84203D17026B2435B
:101CE0004E683243154E164F98420AD0A04208D093
:101CF000A84206D0134CA04203D0B04201D0B84253
:101D000004D103242402A243CC6822438024A243AA
:101D10004C69224302608A68C2620A688262984201
:101D200003D0B04201D0B84201D109690163012159
:101D30004161F0BD002C014000040040004401401E
:101D4000004801400020004010B50123046A8B4088
:101D50009C430462036A8A401343036210BD10B5BA
:101D60000423046A8B409C430462036A8A40134341
:101D7000036210BD30B58468FF252D021B0213439A
:101D8000AC430B432343836030BD826870239A4386
:101D90000A4307210A43826070470000F0B5026AD7
:101DA000520852000262056A436882697024A243A5
:101DB00092080C6892001443022295438A68134EDD
:101DC0002A43114DA84204D0B04202D0104FB8426D
:101DD00006D10827BA43CF681743042297433A46EF
:101DE000A84204D0B04202D0094DA84206D1032532
:101DF0002D02AB434D691D438B692B4343608461C6
:101E0000496841630262F0BD002C0140004401407A
:101E10000048014070B5026A10239A430262046AC6
:101E20004368826973252D02AA430D682D0215436C
:101E3000202294438A6812012243104CA04208D108
:101E40001446CA688026B443120122434024A243A8
:101E500005E00B4CA04202D00A4CA04208D103245A
:101E6000A402A3434C69A4001C438B699B00234339
:101E70004360856149688163026270BD002C014046
:101E8000004401400048014070B5026AFF2301335D
:101E90009A430262046A4368C2697025AA439208A1
:101EA0000D68920015430122520294438A6812027F
:101EB0002243104CA04207D1C414A243CC68240290
:101EC00022430615B24305E00B4CA04202D00B4C56
:101ED000A04208D103242403A3434C6924011C43DA
:101EE0008B691B0123434360C5614968C16302627A
:101EF00070BD0000002C014000440140004801403A
:101F000030B5026A01231B039A430262056A4268E4
:101F1000C36973242402A3430C6824021C430123D5
:101F20005B039D438B681B032B430A4DA84205D0DE
:101F3000094DA84202D0094DA84205D10125AD03A3
:101F4000AA434D69AD012A434260C46149680164F6
:101F5000036230BD002C01400044014000480140B4
:101F600030B5036A046A6408640004628469F02579
:101F7000AC43120122430A24A3430B438261036250
:101F800030BD30B5036A1024A34303628469036A39
:101F90000F252D031203AC432243A024A3430901C0
:101FA00019438261016230BDFEE702E008C8121FDA
:101FB00008C1002AFAD170477047002001E001C132
:101FC000121F002AFBD1704708B5FEF7C1FAFFF7D0
:101FD0001CFE29484269012149040A4342614269C1
:101FE0000A400092426949000A43426142690A403C
:101FF0000092416901221143416140691040002271
:10200000009011460A20FEF7EBFA0A20FEF7DEFAEE
:10201000FFF776FAFFF792FAFFF708FCFFF7BEFA30
:10202000FFF744FBFFF7A8FBFFF7FCFA144813493E
:102030000160002141601349C1608160FEF746FAEA
:10204000002800D0FEE700F0A3F80A20FEF785F98B
:102050000124E4030925ED060948FEF769FA214643
:102060002846FEF727FA0128F6D10548102206492E
:102070001030FEF753FEEFE7001002400030004042
:1020800008000020FF0F00004002002030B5C17B97
:102090007F220C06384B002C03DA11401C68511AC1
:1020A000E163847B3549250604D56406640E0D681A
:1020B000141B2C64447B250604D56406640E121B95
:1020C0000C68E263047B2E4A250603D56406156876
:1020D000640E6C63C47A250603D564061268640E28
:1020E0005463827A140603D552061C68520E226489
:1020F000427A140603D552060C68520EA263047A83
:10210000204A250603D564061568640E6C63C479FD
:10211000250603D564061568640EAC63847925062C
:1021200003D564061B68640E5C6343791C0604D502
:10213000154C5B0624685B0E636303791C0603D5AC
:102140005B0614685B0E2364C3781C0603D55B062C
:1021500009685B0E4B6381780B0603D5490612684C
:10216000490ED1634078010604D508494006096844
:10217000400E486330BD00007C000020BC00002001
:10218000BC010020FC0000203C0100207C0100205C
:102190001FB5802210216846FDF7DEFF6846FFF775
:1021A00075FF3048FFF726F82E48FFF769F9002140
:1021B0002C48FFF781F904212A48FFF77DF908210F
:1021C0002848FFF779F90C212648FFF775F92648CA
:1021D000FFF710F82448FFF753F900212248FFF7D2
:1021E0006BF904212048FFF767F908211E48FFF723
:1021F00063F90C211C48FFF75FF91C48FEF7FAFF52
:102200001A48FFF73DF900211848FFF755F9042156
:102210001648FFF751F908211448FFF74DF90C2132
:102220001248FFF749F91248FEF7E4FF1048FFF79C
:1022300027F900210E48FFF73FF90E48FEF7DAFFB5
:102240000C48FFF71DF900210A48FFF735F90A4845
:10225000FEF7D0FF0848FFF713F900210648FEF704
:1022600059FF1FBD7C000020BC000020FC000020A6
:102270003C0100207C010020BC0100200000000087
:10228000000000000102030406070809AC22000850
:102290000000002008000000AA1F0008B422000867
:1022A0000800002048060000BA1F000800000000D7
:0422B00000127A009E
:04000005080000C12E
:00000001FF
