:020000040800F2
:1000000070040020D5000008890C0008390C000895
:1000100000000000000000000000000000000000E0
:10002000000000000000000000000000410E000879
:100030000000000000000000D10C0008430E000882
:100040000501000805010008050100080501000878
:100050000501000805010008050100080501000868
:100060000501000805010008050100080501000858
:100070000501000805010008050100080501000848
:100080000501000800000000000000000501000854
:100090000000000005010008050100080501000836
:1000A0000000000005010008050100080501000826
:1000B0000501000800000000050100080501000816
:1000C0000348854600F05AF8004800478D0F0008A5
:1000D000700400200C4880F308880C480168090E61
:1000E0000B4A914205D10B480B4901600B480C4962
:1000F00001600C4880470C480047FEE7FEE7FEE73A
:10010000FEE7FEE7FEE700007004002004000000A8
:100110001F00000018100240010000000000014014
:1001200000000000A90E0008C100000830B50B4611
:10013000014600202022012409E00D46D5409D42C1
:1001400005D31D469540491B254695404019154647
:10015000521E002DF1DC30BDD2B201E00270401C15
:10016000491EFBD270470022F6E710B513460A4637
:1001700004461946FFF7F0FF204610BD064C012546
:10018000064E05E0E36807CC2B430C3C984710343F
:10019000B442F7D3FFF798FF0811000828110008B0
:1001A00031B500F0B3F8009C0546601C00D0641C1B
:1001B00000F0ACF8401BA042FAD338BDF8B50023DC
:1001C00089E001249C402A46A44622407ED04C6807
:1001D000022C01D0122C0CD1DC08A40027183C6A98
:1001E0005D07ED0E0F26AE40B4430E69AE402643C8
:1001F0003E6205685E000324B4400F79A543BF0743
:10020000BF0FB7402F4307604D68012D05D0022D69
:1002100003D0112D01D0122D0ED18568CF68A543D2
:10022000B7402F43876047686546AF430D79ED06B9
:10023000ED0F9D403D434560C568A5438C68B440C3
:100240002C43C4604C68E40044D5264CA5690126C3
:100250003543A561A4699D0834400094224CAD004B
:100260002F19BC689D072E0F0F25B540AC430925FB
:10027000ED06A84201D100250AE01C4DA84201D19B
:10028000012505E01A4DA84201D1022500E005250F
:10029000B5402543BD60174C25684E689543F6036D
:1002A00000D51543256065684E689543B60300D5B3
:1002B00015436560A5684E689543F60200D5154361
:1002C000A560E5684E689543B60200E002E000D5FF
:1002D0001543E5605B1C0A681546DA4000D070E7FC
:1002E000F8BD00000010024000000140000400487A
:1002F000000800480004014042694A4042617047DA
:10030000002A01D08161704781627047014800680E
:10031000704700000400002002480168491C016089
:10032000704700000400002010B506480168102244
:1003300011430160002000F007F800F017F80020DA
:1003400010BD00000020024010B5044600F0DEF8A9
:100350007D21C900FFF7EAFE00F052FC0022214691
:10036000501E00F025F8002010BD000008B50F4811
:100370008169012211438161816911400091C26943
:1003800001040A43C261C06900220840009011467E
:10039000501F00F00DF800221146901E00F008F8E2
:1003A00000221146501E00F003F808BD0010024064
:1003B00010B500F06BFC10BDF8B505464E480E4672
:1003C0000068C007C00FB0420AD24B480168490814
:1003D0004900314301600068C007C00FB04270D1CE
:1003E0002878464C800705D56068F0218843A968C5
:1003F000084360602878C00753D06868012817D088
:10040000022818D0032819D021688907002958DA52
:1004100061688908890001436160FFF777FF6968B7
:100420000746012913D002291DD0032927D034E023
:1004300021688903EAE721688901E7E7616BC9035D
:10044000E4E7FFF763FFC11B2D48814223D86068B2
:100450000007800F0128F4D123E0FFF757FFC11BED
:100460002748814217D860680007800F0228F4D11E
:1004700017E0FFF74BFFC11B214881420BD8606892
:100480000007800F0328F4D10BE0FFF73FFFC11BEB
:100490001B48814201D90320F8BD60680007800F26
:1004A000F3D115480168C907C90FB1420BD90168DA
:1004B00049084900314301600068C007C00FB042DD
:1004C00001D00120F8BD2878400706D560680721D3
:1004D00009028843E9680843606000F01DF861681C
:1004E000084A0906090F515CC84007490860002006
:1004F000FFF72AFF0020F8BD002002400010024054
:1005000088130000F8100008080000200148006867
:10051000704700000800002030B516A30FCB89B04B
:100520006C460FC417A30FCB0FC41A494A680C209E
:10053000144604401848042C05D0184B082C04D04D
:100540000C2C00D1184609B030BD9402240F6D4622
:100550002C5DC96A04AD0907090FD203695C920FCB
:10056000022A02D0032A00D11846FFF7DFFD6043BC
:10057000E9E7000002030405060708090A0B0C0D51
:100580000E0F10100102030405060708090A0B0CE0
:100590000D0E0F100010024000127A00006CDC02F9
:1005A000FEB504460078F04EF04DC00748D06868AC
:1005B0000007800F01281FD068680007800F0228FD
:1005C00004D16868C003800F022815D06168012932
:1005D00019D001208004002901D0052917D02968ED
:1005E000B1432960296881432960606800281BD0D5
:1005F000FFF78CFE074613E02868800320D560686B
:10060000002876D01CE0286830432860EDE7296890
:1006100001432960F7E7FFF779FEC01B642869D81A
:1006200028688003F7D50BE0FFF770FE074604E06B
:10063000FFF76CFEC01B6428F1D828688003F7D44C
:10064000207880073ED568680007800F14D068685E
:100650000007800F022804D16868C003800F0128BA
:100660000AD0E068002828681DD0012108432860CE
:10067000FFF74CFE07460BE0286880070BD5E068C3
:10068000012836D107E0FFF741FEC01B0228C6D87B
:1006900028688007F7D52868F82188432169C900B0
:1006A000084328600EE0400840002860FFF72EFE57
:1006B000074604E0FFF72AFEC01B0228AFD82868CF
:1006C0008007F7D42078000724D5E0690028686AFD
:1006D00011D0012108436862FFF718FE074604E0C5
:1006E000FFF714FEC01B022899D8686A8007F7D567
:1006F00010E036E1D1E0400840006862FFF706FEF6
:10070000074604E0FFF702FEC01B022887D8686A8C
:100710008007F7D4207804274007002861DA0020FA
:100720000190E869C00008D4E969B8060143E961AD
:10073000E96901400120009101908D480168C905D7
:1007400011D40168821511430160FFF7DFFD0090AD
:1007500005E0FFF7DBFD0099401A642897D884482C
:100760000068C005F5D5A06801280AD0002801D08E
:10077000052811D0286A400840002862286AB8433A
:1007800002E0286A012108432862A068002812D0EC
:10079000FFF7BCFD00900AE0286A38432862F0E7C2
:1007A000FFF7B4FD0099411A7248814275D8286A52
:1007B0008007F5D50DE0FFF7A9FD009006E0FFF7F3
:1007C000A5FD0099411A6B48814266D8286A8007C6
:1007D000F5D40198002804D0E9690120000781437D
:1007E000E9612078C00635D5606901280CD0401D2C
:1007F000686B24D038436863686B400840006863C6
:10080000FFF784FD074622E0686B38436863686B36
:10081000012108436863FFF779FD074604E0FFF70D
:1008200075FDC01B022838D8686B8007F7D5686B48
:10083000F8218843A169C900084368630AE0B84306
:100840006863F4E7FFF762FDC01B022825D8686BD8
:100850008007F7D42078800637D568680007800FB6
:10086000032813D068680007800F022804D1686845
:10087000C003800F032809D0206A0028686B16D0B7
:1008800030436863FFF742FD06460CE0686BC00327
:100890001BD5206A012864D117E05BE0FFF736FD25
:1008A000801B022856D8686BC003F7D50DE0B04313
:1008B0006863FFF72BFD064604E0FFF727FD801B6A
:1008C000022847D8686BC003F7D4606A002846D076
:1008D00069680907890F022943D0012636060228D4
:1008E000286805D0B0432860FFF710FD044633E0C8
:1008F000B0432860FFF70AFD074604E0FFF706FD56
:10090000C01B022826D828688001F7D4E86A216B2A
:10091000000900010843E862A16AE06A08436968C7
:100920007B22D203914308436860286830432860E3
:10093000FFF7ECFC044604E0FFF7E8FC001B02288C
:1009400008D828688001F7D509E0FFF7DFFC001B15
:10095000022801D90320FEBD28688001F5D40020BB
:10096000FEBD0120FEBD000000000100001002409D
:100970000070004088130000F8B5040007D000267E
:1009800025464035A662687F002802D005E0012098
:10099000F8BD2E77204600F04BF802236B772068D5
:1009A00001684022914301600721E0680902884202
:1009B00001D9002201E0012212030F273F02B842B1
:1009C00002D0884200D0A662276B002F05D1884252
:1009D00001D9236301E001202063A1686068636995
:1009E00008432169194308430123A1695B021940A7
:1009F0000843E1690843216A0843A16A0843216862
:100A00000860616B606AA36908431B0C0427E168F6
:100A10003B40194308432168104348602068C1697E
:100A20007A029143C1612666012068770020F8BDF3
:100A300000B500680D4987B0884215D10C4882691D
:100A400081140A438261806908400590E02000908B
:100A500002200190002103200390029104910920BB
:100A60006946C006FFF7AAFB07B000BD0030014091
:100A700000100240FFB5064604464036307F00278E
:100A800081B00D46012809D001203077FFF73EFCE8
:100A90000090707F012804D002279DE0022005B05D
:100AA000F0BD002D72D0039800286FD0032070771E
:100AB00000202066A5630399A1870399E18720643C
:100AC000B080F0802065E0640121A068C9038842FD
:100AD00005D120680168012292031143016020685A
:100AE0000168490603D401684022114301600720D0
:100AF000E16800028142606823D9002802D0E08FBB
:100B000001281AD121682888C86005E0206881681A
:100B1000890706D52988C160E08F401EE087AD1C9B
:100B20000BE0049800283ED0401C06D0FFF7EEFBF7
:100B30000099411A0498814235D2E08F0028E5D10E
:100B400036E0002802D0E08F01282ED1E08F012866
:100B500003D921682888C8600CE0216828780873C8
:100B60000FE020688168890711D5E18F012906D936
:100B70002988C160E08F801EE087AD1C15E02978D0
:100B80000173E08F401EE0876D1C0EE023E00498A7
:100B9000002808D0401C08D0FFF7B8FB0099411A84
:100BA0000498814201D3032716E0E08F0028D8D1B2
:100BB0002046009A049900F08CF8002801D02020EB
:100BC0002066A068002803D12068C1688068009072
:100BD000206E002800D00127012070770020307798
:100BE00038465CE7042204490428086902D090438F
:100BF000086170471043FBE700E000E07047000029
:100C0000094910B5401E884201D9012010BD074C8A
:100C100060610321081F00F039F80020A06107205F
:100C20002061002010BD0000FFFFFF0000E000E099
:100C300010B5FFF7E3FF10BDFEE7000010B5114847
:100C40000F490160FF2105314160002107228160C9
:100C500012020161C260012241615202826101629D
:100C600010224162C26181620722C26201630821CF
:100C70004163FFF781FE002800D0FEE710BD0000B1
:100C8000003001400C000020704700008307FF2265
:100C9000DB0E9A408907090E994000280BDA0007FD
:100CA000000F0838830808489B001818C36993434D
:100CB0000B43C3617047830804489B001B181868E6
:100CC000904308431860704700ED00E000E400E046
:100CD0007047F8B50F460B461546009203210446AF
:100CE0000022C90200F01BF82026002812D13B4642
:100CF000002280212046009500F05CF8002809D1F0
:100D000003213B46002249022046009500F007F8E7
:100D1000002803D0206E304320660320F8BDF8B5CC
:100D20001D4617460E4604463DE0032149028E4209
:100D300005D1002F03D1017B684601700078681C43
:100D400031D0002D05D0FFF7E1FA0699401AA842EC
:100D500029D320684168E022914341606068C11F47
:100D6000FD390CD10121A068C903884202D0491184
:100D7000884204D12068016840229143016001202B
:100D8000A16A4003814207D121680A6882430A6050
:100D900021680A6802430A6001204034607700201D
:100DA00020770320F8BD206881683140B942BCD16A
:100DB0000020F8BDF8B51D4617460E46044633E040
:100DC000681C31D0002D05D0FFF7A0FA0699401A13
:100DD000A84229D320684168E022914341606068BD
:100DE000C11FFD390CD10121A068C903884202D07E
:100DF0004911884204D12068016840229143016072
:100E00000120A16A4003814207D121680A68824318
:100E10000A6021680A6802430A6001204034607752
:100E2000002020770320F8BD206881683046884381
:100E300004D00020B842C3D10020F8BD0120F9E75A
:100E4000704710B5FFF768FAFFF7F2FE10BD10B556
:100E500092B0202000900120002408900994684658
:100E6000FFF79EFB002800D0FEE707200D9003202F
:100E70000E900F94012110940DA8FFF79DFA002801
:100E800000D0FEE7FFF742FB7D21C900FFF74EF9D6
:100E9000FFF7B6FE0420FFF7A5FE00221146501E04
:100EA000FFF786FA12B010BD134801680122114302
:100EB00001604168114A114041600168104A1140C7
:100EC00001600168012292049143016041683F2260
:100ED000120491434160C16A09090901C162016BB1
:100EE000FF22D43291430163416B490849004163B9
:100EF0000021816070470000001002400CB8FF081C
:100F0000FFFFF6FE02E008C8121F08C1002AFAD14E
:100F100070477047002001E001C1121F002AFBD179
:100F2000704700007FB514460D460646802210210A
:100F30006846FFF711F9AA21684601700021417344
:100F40008173C1730A213046FFF7F0F8491CC8B21B
:100F500069460A5C2A430A54002C01D0AB20087071
:100F60000924E406002210212046FFF7C9F9642372
:100F7000102269460448FFF77DFD0122102120461A
:100F8000FFF7BEF97FBD00000C00002086B0FFF720
:100F9000CBF9FFF75CFF15484269012149040A4378
:100FA0004261406909240840E406059000220121BD
:100FB0002046FFF7A5F94121012209012046FFF74C
:100FC0009FF90B48009001200190002002900390AF
:100FD00069462046FFF7F2F8FFF730FE0121204670
:100FE000FFF78AF900F050F8F8E70000001002401F
:100FF000110400001FB50022009201920292039298
:10100000AA236A46137080231843D07219431173C0
:101010000924E406002210212046FFF771F9642319
:10102000102269460448FFF725FD012210212046C1
:10103000FFF766F91FBD00000C0000201FB500235C
:101040000093019302930393AA236C462370802399
:10105000184360731943A1731A43E2730924E40629
:10106000002210212046FFF74BF964231022694625
:101070000448FFF7FFFC012210212046FFF740F94A
:101080001FBD00000C00002010B51A4C0321207871
:10109000401CC0B22070FFF749F8002904D0012994
:1010A00006D0022907D00BE0002211467F2005E080
:1010B00000227F2101E07F2200210020FFF7BEFFF8
:1010C00020780022022801D0032800D101227821B3
:1010D000FFF728FF2078C00702D000217F2001E021
:1010E0007F210020FFF786FFFF202D30FFF758F803
:1010F00010BD000000000020000000000000000003
:101100000102030406070809281100080000002056
:101110000C000000040F0008341100080C0000202F
:1011200064040000140F000800000000000000002C
:0411300000127A002F
:04000005080000C12E
:00000001FF
