:020000040800F2
:10000000C0060020D5000008291B0008FD160008C6
:1000100000000000000000000000000000000000E0
:10002000000000000000000000000000451E000865
:100030000000000000000000711B0008471E0008BF
:100040000501000805010008050100080501000878
:100050000501000805010008050100080501000868
:100060000501000805010008A101000805010008BC
:100070000501000805010008050100080501000848
:100080000501000800000000000000000501000854
:100090000000000005010008050100080501000836
:1000A0000000000005010008050100080501000826
:1000B0000501000800000000050100080501000816
:1000C0000348854600F05AF800480047E924000834
:1000D000C00600200C4880F308880C480168090E0F
:1000E0000B4A914205D10B480B4901600B480C4962
:1000F00001600C4880470C480047FEE7FEE7FEE73A
:10010000FEE7FEE7FEE70000C00600200400000056
:100110001F00000018100240010000000000014014
:1001200000000000C11E0008C100000830B50B46E9
:10013000014600202022012409E00D46D5409D42C1
:1001400005D31D469540491B254695404019154647
:10015000521E002DF1DC30BDD2B201E00270401C15
:10016000491EFBD270470022F6E710B513460A4637
:1001700004461946FFF7F0FF204610BD064C012546
:10018000064E05E0E36807CC2B430C3C984710343F
:10019000B442F7D3FFF798FFD4270008F4270008EC
:1001A00010B5024800F02AF810BD00006C020020D3
:1001B00010B504460068054940181421FFF7B6FF42
:1001C000800020640248E06310BD0000F8FFFDBF1E
:1001D0000000024030B5056C0124AC40C56B6C607A
:1001E000046863604368102B036803D0996000685B
:1001F000C26030BD9A600068C16030BDF0B4C16BB0
:100200000D6801680C680422066C1346B3402B424B
:100210000DD063070BD50B689B0602D40B68934384
:100220000B60016C8A40C16B4A60C16A19E0022709
:10023000B74002462F4001232032002F15D0A707D8
:1002400013D50C68A40604D40C680A25AC430C60D2
:100250005370036C02219940C36B596000211170E7
:10026000816A002916D0F0BC08470827B7402F4202
:1002700010D024070ED50C680E25AC430C60046C1E
:100280001946A140C46B61608363537000211170F3
:10029000016BE6E7F0BC704770B5040024D0022083
:1002A000214620310D464870226811680F48A36826
:1002B0000140606826691843E36833431843636963
:1002C0001843A3691843E3691843084310602046A4
:1002D000FFF76EFF0020A062E06220636063A0630E
:1002E00001216970287070BD012070BD0FC0FFFF33
:1002F000F8B504468C46203001780025012909D044
:100300000126067041780027012905D007700225D3
:100310002846F8BD0220F8BD02214170A76320687D
:10032000016849084900016061462046FFF752FF15
:10033000E06A00282068016802D00E22114306E01E
:100340000A22114301602068016804229143016080
:100350002068016831430160DAE731B500F0B6F892
:10036000009C0546601C00D0641C00F0AFF8401BE8
:10037000A042FAD338BD0000F8B5002389E001247B
:100380009C402A46A44622407ED04C68022C01D0D4
:10039000122C0CD1DC08A40027183C6A5D07ED0E76
:1003A0000F26AE40B4430E69AE4026433E62056858
:1003B0005E000324B4400F79A543BF07BF0FB740C9
:1003C0002F4307604D68012D05D0022D03D0112D5C
:1003D00001D0122D0ED18568CF68A543B7402F43B9
:1003E000876047686546AF430D79ED06ED0F9D4088
:1003F0003D434560C568A5438C68B4402C43C46048
:100400004C68E40044D5264CA56901263543A56116
:10041000A4699D0834400094224CAD002F19BC689B
:100420009D072E0F0F25B540AC430925ED06A842C8
:1004300001D100250AE01C4DA84201D1012505E0AB
:100440001A4DA84201D1022500E00525B5402543FB
:10045000BD60174C25684E689543F60300D51543DB
:10046000256065684E689543B60300D51543656001
:10047000A5684E689543F60200D51543A560E5686A
:100480004E689543B60200E002E000D51543E560F2
:100490005B1C0A681546DA4000D070E7F8BD000022
:1004A000001002400000014000040048000800481D
:1004B000000401400069084000D001207047002A74
:1004C00001D0816170478162704700000148006877
:1004D000704700000000002070B5040005D02546DC
:1004E0006035687A002802D006E0012070BD002047
:1004F0002872204601F0DCF8242068722068016828
:10050000490849000160204601F014FF0128EDD0A0
:10051000606A002802D0204601F072FE206841681F
:100520000922D202914341602068816822229143CE
:100530008160206881680822114381602068016819
:10054000012211430160204601F0C0FE70BD000091
:1005500070B504000FD02168134808602168134863
:10056000086003CC41602068083C21688860FFF780
:10057000ADFF054608E0012070BDFFF7A7FF401B57
:10058000272801D9032070BD2068C0680028F4D155
:1005900020680269E1688A4201D0016101E00449F2
:1005A0000160002070BD0000CCCC0000555500005B
:1005B000AAAA0000006802490160002070470000FC
:1005C000AAAA000002480168491C016070470000A7
:1005D0000000002010B50648016810221143016098
:1005E000002000F007F800F017F8002010BD000010
:1005F0000020024010B5044600F076F97D21C900C4
:10060000FFF794FD00F0FAFD00222146501E00F095
:1006100029F8002010BD000008B50C4881690122AE
:100620001143816180691040002200901146501FE3
:1006300000F018F800221146901E00F013F8002276
:100640001146501E00F00EF808BD000000100240D8
:10065000C106C90E012088400149086070470000AA
:1006600000E100E010B501F061FA10BDBFF34F8F5B
:1006700004490348C860BFF34F8F00BFFDE7000087
:100680000400FA0500ED00E0F8B5044600683E4DB0
:10069000C00352D5E8690026C00007D4E9692804E0
:1006A0000143E961E9690140012600913748016889
:1006B000C90510D40168821511430160FFF706FFD8
:1006C000074604E0FFF702FFC01B642824D82F4828
:1006D0000068C005F6D5286A03273F02384020D0BD
:1006E0006168394081421CD0286A2A6AB8430121D6
:1006F00009040A432A622A6A8A432A622862C007D6
:100700000FD0FFF7E3FE009008E0FFF7DFFE00994F
:10071000411A1F48814201D90320F8BD286A800789
:10072000F3D5286A6168B84308432862002E04D0D4
:10073000E969012000078143E9612078C00705D0FD
:10074000286BA16880088000084328632078800611
:1007500005D5286B10218843E16808432863206889
:10076000800305D5286B802188436169084328638D
:100770002088400505D5286B40218843216908431E
:1007800028630020F8BD0000001002400070004007
:1007900088130000F8B505464E480E460068C007AD
:1007A000C00FB0420AD24B480168490849003143A2
:1007B00001600068C007C00FB04270D12878464C75
:1007C000800705D56068F0218843A9680843606008
:1007D0002878C00753D06868012817D0022818D09D
:1007E000032819D021688907002958DA6168890827
:1007F000890001436160FFF769FE696807460129C6
:1008000013D002291DD0032927D034E021688903A1
:10081000EAE721688901E7E7616BC903E4E7FFF7CD
:1008200055FEC11B2D48814223D860680007800F08
:100830000128F4D123E0FFF749FEC11B274881427C
:1008400017D860680007800F0228F4D117E0FFF77F
:100850003DFEC11B214881420BD860680007800F14
:100860000328F4D10BE0FFF731FEC11B1B48814286
:1008700001D90320F8BD60680007800FF3D1154847
:100880000168C907C90FB1420BD90168490849007D
:10089000314301600068C007C00FB04201D00120A1
:1008A000F8BD2878400706D560680721090288430B
:1008B000E9680843606000F02DF86168084A09069D
:1008C000090F515CC840074908600020FFF792FEFD
:1008D0000020F8BD002002400010024088130000F4
:1008E000BC27000804000020014800687047000091
:1008F000040000200448054900684968044A490585
:10090000490F515CC84070470400002000100240AD
:10091000CC27000830B516A30FCB89B06C460FC4A6
:1009200017A30FCB0FC41A494A680C201446044081
:100930001848042C05D0184B082C04D00C2C00D1DE
:10094000184609B030BD9402240F6D462C5DC96A6B
:1009500004AD0907090FD203695C920F022A02D085
:10096000032A00D11846FFF7E1FB6043E9E70000E6
:1009700002030405060708090A0B0C0D0E0F1010E0
:100980000102030405060708090A0B0C0D0E0F10DF
:100990000010024000127A00006CDC02FEB5044632
:1009A0000078F04EF04DC00748D068680007800F0F
:1009B00001281FD068680007800F022804D16868EA
:1009C000C003800F022815D06168012919D00120C9
:1009D0008004002901D0052917D02968B143296076
:1009E000296881432960606800281BD0FFF76EFDED
:1009F000074613E02868800320D56068002876D079
:100A00001CE0286830432860EDE72968014329602D
:100A1000F7E7FFF75BFDC01B642869D828688003EF
:100A2000F7D50BE0FFF752FD074604E0FFF74EFD58
:100A3000C01B6428F1D828688003F7D42078800789
:100A40003ED568680007800F14D068680007800FE3
:100A5000022804D16868C003800F01280AD0E0682A
:100A6000002828681DD0012108432860FFF72EFDCB
:100A700007460BE0286880070BD5E068012836D1CF
:100A800007E0FFF723FDC01B0228C6D828688007AF
:100A9000F7D52868F82188432169C90008432860F0
:100AA0000EE0400840002860FFF710FD074604E014
:100AB000FFF70CFDC01B0228AFD828688007F7D4C9
:100AC0002078000724D5E0690028686A11D0012148
:100AD00008436862FFF7FAFC074604E0FFF7F6FCFC
:100AE000C01B022899D8686A8007F7D510E036E164
:100AF000D1E0400840006862FFF7E8FC074604E0E8
:100B0000FFF7E4FCC01B022887D8686A8007F7D487
:100B1000207804274007002861DA00200190E86966
:100B2000C00008D4E969B8060143E961E9690140F8
:100B30000120009101908D480168C90511D4016818
:100B4000821511430160FFF7C1FC009005E0FFF73B
:100B5000BDFC0099401A642897D884480068C005F5
:100B6000F5D5A06801280AD0002801D0052811D0A9
:100B7000286A400840002862286AB84302E0286AD0
:100B8000012108432862A068002812D0FFF79EFCCC
:100B900000900AE0286A38432862F0E7FFF796FCE5
:100BA0000099411A7248814275D8286A8007F5D5A4
:100BB0000DE0FFF78BFC009006E0FFF787FC009943
:100BC000411A6B48814266D8286A8007F5D401989B
:100BD000002804D0E969012000078143E9612078F9
:100BE000C00635D5606901280CD0401D686B24D043
:100BF00038436863686B400840006863FFF766FC31
:100C0000074622E0686B38436863686B012108433C
:100C10006863FFF75BFC074604E0FFF757FCC01B67
:100C2000022838D8686B8007F7D5686BF8218843AD
:100C3000A169C900084368630AE0B8436863F4E740
:100C4000FFF744FCC01B022825D8686B8007F7D447
:100C50002078800637D568680007800F032813D0F6
:100C600068680007800F022804D16868C003800FFD
:100C7000032809D0206A0028686B16D030436863C7
:100C8000FFF724FC06460CE0686BC0031BD5206A06
:100C9000012864D117E05BE0FFF718FC801B0228F5
:100CA00056D8686BC003F7D50DE0B0436863FFF713
:100CB0000DFC064604E0FFF709FC801B022847D81C
:100CC000686BC003F7D4606A002846D069680907DA
:100CD000890F022943D0012636060228286805D04C
:100CE000B0432860FFF7F2FB044633E0B0432860CE
:100CF000FFF7ECFB074604E0FFF7E8FBC01B022808
:100D000026D828688001F7D4E86A216B0009000121
:100D10000843E862A16AE06A084369687B22D2035B
:100D2000914308436860286830432860FFF7CEFB92
:100D3000044604E0FFF7CAFB001B022808D8286815
:100D40008001F7D509E0FFF7C1FB001B022801D99C
:100D50000320FEBD28688001F5D40020FEBD0120DF
:100D6000FEBD0000000001000010024000700040C5
:100D7000881300007047F8B5040007D00026254608
:100D80004035A662687F002802D005E00120F8BD4A
:100D90002E77204600F04CF802236B77206801681C
:100DA0004022914301600721E0680902884201D98D
:100DB000002201E0012212030F273F02B84202D0B5
:100DC000884200D0A662276B002F05D1884201D946
:100DD000236301E001202063A16860686369084320
:100DE0002169194308430123A1695B0219400843A3
:100DF000E1690843216A0843A16A08432168086041
:100E0000616B606AA36908431B0C0427E1683B40DF
:100E1000194308432168104348602068C1697A0279
:100E20009143C1612666012068770020F8BD00006B
:100E300070B506460068194986B088422CD118481A
:100E4000826981140A438261806900250840059007
:100E5000144800900220019003200390092002957D
:100E600069460495C006FFF787FA0F480F4C21C466
:100E70002560A560E560802025616060800160617B
:100E80000A48083CFFF708FA002803D06D2108A0A3
:100E900001F019FBB465666206B070BD0030014018
:100EA00000100240E08000001C0002406C020020A4
:100EB0002E2E2F5372632F73746D33326630787811
:100EC0005F68616C5F6D73702E630000F8B5044657
:100ED0008068254600274035002803D16368DE1F5F
:100EE000FD3E0AD02B7F012B0FD001232B776B7F88
:100EF0000026012B0BD002276FE0042068771346F1
:100F00000A46204600F09CF8F8BD0220F8BD0029F2
:100F100024D0002A22D004236B7726662164AA807D
:100F2000EA80E6642665A687E6875903884204D1ED
:100F3000206801681A03914301602068426801211A
:100F400049038A4342600723E2681B0248109A4221
:100F500006D921684A6882434A601AE001273CE0CA
:100F60002268536803435360A26D012352699B02B8
:100F70009A420ED12268536883435360E888C007C1
:100F8000206842682CD00A434260E8884008401C30
:100F9000E880A16D1548C862A16D15488862A16DF1
:100FA00014480863A06D4663EB882168226C0C31FD
:100FB000A06DFFF79DF920680168490603D4016818
:100FC00040221143016020684168202211434160A2
:100FD000206841680122114341602E773846F8BDF0
:100FE0008A434260E8884008D2E70000951B000869
:100FF000A91B0008731B000810B50C4C2078400892
:10100000552801D0FFF732FB084801F0DFFA2078BD
:101010000749C207074800D00122FFF750FA102203
:1010200002490548FFF752FF10BD0000B002002042
:101030000010000000000048180000207047000069
:10104000F8B5054604464035287F00269446012819
:101050000CD001202877687F676801280CD0FA1F20
:10106000FD3A07D1A268002A04D101E00220F8BDB0
:10107000042801D002268FE0002926D060460028EF
:1010800023D0002B21D0687F042801D00520687769
:1010900000272766A163A387E38760462064AB80AF
:1010A000EB80E7642765206841680322520391437F
:1010B000416007220120E168120200039142216889
:1010C0004A6804D982434A602BE0012664E0024367
:1010D0004A60616D4A69012189028A420BD1A18F60
:1010E000CA072268364953685AD00B435360E18FD0
:1010F0004908491CE187A16D4A69012189028A4298
:101100000FD121684A6882434A60E888C107216894
:101110002C484A6849D002434A60E8884008401C8D
:10112000E880687F042845D0A16D2748C862274819
:10113000A16D8862A16D26480863A06D4763EB88A6
:101140002168226C0C31A06DFFF7D2F8206841684D
:10115000012211434160606DC762606D8762606DFE
:101160000763606D4763E38F2268A16B0C32606D8B
:10117000FFF7BEF820680168490603D401684022E1
:1011800011430160206841682022114341602068BA
:101190004168022211434160002028773046F8BDA3
:1011A0008B435360E18F4908A4E782434A60E88893
:1011B0004008B5E7A16D0748C8620748B8E70000D6
:1011C00000400000002000009F1B0008011C0008D8
:1011D000731B0008951B0008A91B00087047704787
:1011E000042204490428086902D09043086170472A
:1011F0001043FBE700E000E070470000094910B52C
:10120000401E884201D9012010BD074C60610321B6
:10121000081F00F08BFC0020A06107202061002047
:1012200010BD0000FFFFFF0000E000E010B5FFF779
:10123000E3FF10BD70B5034620331A7F012A27D083
:1012400001241C7702225A770326CA683602B24369
:101250008E6800253243A602B2434E6800683243CE
:10126000E602B2430E6832432603B2430E693243AC
:101270006603B2434E6989693243A603B2430A4307
:10128000E603B2430A4342645C771D77002070BDD9
:10129000022070BD70B502462032137F012B1BD097
:1012A0000123137702245477046865687026B543D8
:1012B0006560046865680E68354365600468A56804
:1012C0008026B543A5600068846849680C43846043
:1012D00053770020107770BD022070BD10B5044612
:1012E0000068042200F067FE2068416C0122D203EE
:1012F000114341642068016801221143016000200C
:1013000010BD70B5040005D025462035687F002843
:1013100002D006E0012070BD00202877204600F0B2
:101320000BF802206877211D206800F0F7FD0120EE
:101330006877002070BD000008B51A4A01681A4895
:10134000914202D18269C11427E0012292079142A1
:1013500007D1C16901221143C161C06910400090E9
:1013600008BD124A914202D1C269022104E0104A2A
:10137000914205D1C26989150A43C261C0690FE073
:101380000C4A914203D182690121490405E00A4ACD
:101390009142E5D18269012189040A438261806911
:1013A0000840DCE7002C014000100240000400402F
:1013B0000020004000440140004801400222014654
:1013C00020314A770268136801200343136048778D
:1013D00000207047F8B5054604462035287F0128CF
:1013E00017D001272F770220687722689068772628
:1013F000FF23B0431B02984390600868502837D001
:101400000EDC202857D006DC00284ED0102840D112
:101410004EE00220F8BD302850D0402839D13CE0C1
:1014200060282DD0702817D001221203801A0ED008
:1014300090422ED1CB684A688968206800F0C6FDCA
:1014400020688168012292031143816021E02068B5
:101450008168C908C900F8E7CB684A6889682068CC
:1014600000F0B4FD21688868B0433043886010E024
:10147000CA684968206800F09FFE5021206806E095
:10148000CA684968206800F0A8FE6021206800F062
:10149000A8FD6F7700202877F8BDCA6849682068E2
:1014A00000F08AFE40212068F1E700212068EEE785
:1014B00010212068EBE720212068E8E73021206830
:1014C000E5E7000030B50368204C09200021022226
:1014D000C00685B0A34202D10F231B0204E0012401
:1014E000A407A3420AD10F23029101920093049210
:1014F00003916946FEF740FF05B030BD144D154C11
:10150000AB4207D133200090012002910192039158
:10151000049018E0104DAB4207D1102302910391C3
:101520000421009301920491E3E70C48834201D126
:10153000801503E00A488342DED1802002910192A7
:1015400004920391009069462046D3E7002C0140A5
:101550000004004000040048002000400044014016
:1015600000480140F8B5064604462036307F0D4657
:1015700001280DD001203077022070770427002A3F
:1015800008D0042A16D0082A2AD00C2A4DD137E0D8
:101590000220F8BD206800F02DFD20688169082236
:1015A0001143816120688169B94381612068816943
:1015B0002A6912E0206800F059FD20688269012143
:1015C000C9020A4382612068816901229202914323
:1015D0008161206881692A6912021143816124E0D6
:1015E000206800F07DFD2068C26908210A43C261BD
:1015F0002068C169B943C1612068C1692A6912E0E4
:10160000206800F0A9FD2068C1690122D2021143BF
:10161000C1612068C269012189028A43C2612068D0
:10162000C1692A6912021143C1610120707700204B
:101630003077F8BD70B5040005D025462035687FA9
:10164000002802D006E0012070BD00202877204647
:1016500000F00AF802206877211D206800F05EFC87
:1016600001206877002070BD7047000010B5044667
:101670000068012200F094FC0A482168814205D0EC
:101680000948814202D00948814204D1486C0122B4
:10169000D2031043486420680168012211430160AD
:1016A000002010BD002C01400044014000480140D2
:1016B00000B500680E4987B0884216D10D4882698E
:1016C000012189030A438261806908400590402016
:1016D000009012200190012002900320039000202E
:1016E000049069460448FEF747FE07B000BD0000BD
:1016F000003801400010024000040048FEE70000EE
:1017000010B50D480B490160002141608160016105
:10171000416181610722016212024162C2608162FD
:1017200007220163C2624163FFF725FB002800D056
:10173000FEE710BD003001401800002010B516482B
:1017400088B0144901600F210024C9018460416000
:1017500004617F218461C160FFF7D3FD002800D0C0
:10176000FEE70D48FFF766FF002800D0FEE7602087
:101770000090019402940022694604940648FFF701
:10178000F1FE002800D0FEE70348FFF79BFE08B0FB
:1017900010BD0000002000403C01002010B5204892
:1017A0008EB01E4901600F210024C9018460416090
:1017B000046144617F218461C160FFF7A2FD0028BC
:1017C00000D0FEE71648FFF735FF002800D0FEE7FF
:1017D00060200594019400900294039404940022E4
:1017E000694606940E48FFF7BDFE002800D0FEE7CC
:1017F00001200794400308940C9009940A940B94D8
:1018000007A90D940648FFF715FD002800D0FEE754
:101810000348FFF757FE0EB010BD00000044014022
:101820007C01002010B520488EB01E4901600F21B8
:101830000024C90184604160046144617F218461A6
:10184000C160FFF75EFD002800D0FEE71648FFF7F5
:10185000F1FE002800D0FEE760200594019400907E
:101860000294039404940022694606940E48FFF7FC
:1018700079FE002800D0FEE7012007944003089479
:101880000C9009940A940B9407A90D940648FFF74D
:10189000D1FC002800D0FEE70348FFF713FE0EB08E
:1018A00010BD000000480140BC01002010B53548C3
:1018B00094B0334901600F210024C9018460416064
:1018C000046144617F218461C160FFF71AFD002833
:1018D00000D0FEE7012000030E900EA92948FFF773
:1018E00079FD002800D0FEE72648FFF7A3FE002878
:1018F00000D0FEE7129412A922481394FFF7CAFC05
:10190000002800D0FEE76020059401940090029426
:10191000039404940022694606941A48FFF722FEB5
:10192000002800D0FEE7042269461648FFF71AFE99
:10193000002800D0FEE7082269461248FFF712FE91
:10194000002800D0FEE70C2269460E48FFF70AFE89
:10195000002800D0FEE701200794400308940C9073
:1019600009940A940B9407A90D940648FFF762FCAA
:10197000002800D0FEE70348FFF7A4FD14B010BD17
:10198000002C01407C00002010B501212A488EB0B7
:10199000890701600F210024C9018460416004614E
:1019A0007F218461C160FFF7ACFC002800D0FEE716
:1019B00001200003079007A91F48FFF70BFD00282F
:1019C00000D0FEE71C48FFF735FE002800D0FEE7F8
:1019D0000B940BA918480C94FFF75CFC002800D06E
:1019E000FEE760200090019402940022694604946E
:1019F0001148FFF7B7FD002800D0FEE70422694632
:101A00000D48FFF7AFFD002800D0FEE70822694629
:101A10000948FFF7A7FD002800D0FEE70C22694621
:101A20000548FFF79FFD002800D0FEE70248FFF7BA
:101A300049FD0EB010BD0000BC00002010B52B48C1
:101A40008EB0294901600F210024C90184604160E2
:101A500004617F218461C160FFF753FC002800D03E
:101A6000FEE701200003079007A92048FFF7B2FC1A
:101A7000002800D0FEE71D48FFF7DCFD002800D05D
:101A8000FEE70B940BA919480C94FFF703FC002800
:101A900000D0FEE760200090019402940022694685
:101AA00004941248FFF75EFD002800D0FEE70422F0
:101AB00069460E48FFF756FD002800D0FEE70822D1
:101AC00069460A48FFF74EFD002800D0FEE70C22C9
:101AD00069460648FFF746FD002800D0FEE70348A8
:101AE000FFF7F0FC0EB010BD00040040FC00002029
:101AF00010B50C480A490160E1214902416000210A
:101B00008160C16001618161C1610822016242613D
:101B10004162FEF7E1FC002800D0FEE710BD0000A6
:101B200000380140FC010020704700008307FF22BD
:101B3000DB0E9A408907090E994000280BDA00074E
:101B4000000F0838830808489B001818C36993439E
:101B50000B43C3617047830804489B001B18186837
:101B6000904308431860704700ED00E000E400E097
:101B7000704710B5406A01684A68920892004A604E
:101B8000016E10221143016601225D210A54FFF704
:101B9000F1F810BD10B5406AFFF750FA10BD10B54E
:101BA000406AFFF71CFB10BD70B50546446AFEF79E
:101BB0008DFC02462868006880061DD420684168B4
:101BC0002025A94341602068416889088900416057
:101BD0006421204600F043F8002800D0256600214B
:101BE00020464030C18001214177206E002803D07B
:101BF0002046FFF7BFF870BD2046FFF7FDF970BD26
:101C000070B50546446AFEF761FC02462868006824
:101C1000800620D4206841682025A94341606421C2
:101C2000204600F058F8002802D0206E2843206695
:101C3000206841688908890041600021E1872046C9
:101C40004030C18001214177206E002803D020461A
:101C5000FFF790F870BD2046FFF7C0FA70BDF7B5EA
:101C600004464068FF26053682B01546B0420CD1C6
:101C70000121A068C903884202D04911884204D1D9
:101C80002068016840229143016000950022802174
:101C90002046039B00F090F82027002813D16068AD
:101CA000B04216D1A068B902884202D049118842D8
:101CB0000FD103210095002249022046039B00F02A
:101CC00030F8002805D0206E38432066032005B088
:101CD000F0BD0020FBE7F8B50F460B461546009215
:101CE000032104460022C90200F01BF82026002828
:101CF00012D13B46002280212046009500F05CF87E
:101D0000002809D103213B460022490220460095C4
:101D100000F007F8002803D0206E3043206603202F
:101D2000F8BDF8B51D4617460E4604463DE00321B2
:101D300049028E4205D1002F03D1017B6846017014
:101D40000078681C31D0002D05D0FEF7BFFB069946
:101D5000401AA84229D320684168E022914341609B
:101D60006068C11FFD390CD10121A068C9038842F8
:101D700002D04911884204D1206801684022914371
:101D800001600120A16A4003814207D121680A68ED
:101D900082430A6021680A6802430A6001204034D5
:101DA0006077002020770320F8BD206881683140EB
:101DB000B942BCD10020F8BDF8B51D4617460E4605
:101DC000044633E0681C31D0002D05D0FEF77EFBC1
:101DD0000699401AA84229D320684168E02291431D
:101DE00041606068C11FFD390CD10121A068C903A1
:101DF000884202D04911884204D1206801684022FB
:101E0000914301600120A16A4003814207D121680A
:101E10000A6882430A6021680A6802430A60012056
:101E200040346077002020770320F8BD2068816867
:101E30003046884304D00020B842C3D10020F8BD0A
:101E40000120F9E7704710B5FEF7BCFBFFF7EEF98C
:101E500010BD30B597B028200125002400900895CA
:101E6000079509946846FEF799FD002800D0FEE723
:101E700007200D9003200E900F94012110940DA8BF
:101E8000FEF788FC002800D0FEE7119511A81395F5
:101E9000FEF7FAFB002800D0FEE7FEF725FD7D21C6
:101EA000C900FEF743F9FFF7A9F90420FFF798F9F5
:101EB00000221146501EFEF7D5FB17B030BD0000C2
:101EC000134801680122114301604168114A114021
:101ED00041600168104A11400160016801229204CA
:101EE0009143016041683F22120491434160C16AFD
:101EF00009090901C162016BFF22D43291430163D8
:101F0000416B49084900416300218160704700002E
:101F1000001002400CB8FF08FFFFF6FEF0B50268A3
:101F20001A4B0124A4071A4D984203D0A04201D0B5
:101F3000A84203D17026B2434E683243154E164F65
:101F400098420AD0A04208D0A84206D0134CA04222
:101F500003D0B04201D0B84204D103242402A243EA
:101F6000CC6822438024A2434C69224302608A68E1
:101F7000C2620A688262984203D0B04201D0B8427D
:101F800001D10969016301214161F0BD002C0140CB
:101F9000000400400044014000480140002000408F
:101FA00010B50123046A8B409C430462036A8A4093
:101FB0001343036210BD10B50423046A8B409C4395
:101FC0000462036A8A401343036210BD30B584681B
:101FD000FF252D021B021343AC430B4323438360B5
:101FE00030BD826870239A430A4307210A43826006
:101FF00070470000F0B5026A520852000262056A9A
:10200000436882697024A24392080C6892001443CA
:10201000022295438A68134E2A43114DA84204D0E8
:10202000B04202D0104FB84206D10827BA43CF6859
:102030001743042297433A46A84204D0B04202D044
:10204000094DA84206D103252D02AB434D691D431E
:102050008B692B4343608461496841630262F0BD30
:10206000002C0140004401400048014070B5026A64
:1020700010239A430262046A4368826973252D0221
:10208000AA430D682D021543202294438A68120149
:102090002243104CA04208D11446CA688026B4439B
:1020A000120122434024A24305E00B4CA04202D07F
:1020B0000A4CA04208D10324A402A3434C69A40003
:1020C0001C438B699B00234343608561496881639E
:1020D000026270BD002C01400044014000480140F4
:1020E00070B5026AFF2301339A430262046A4368AF
:1020F000C2697025AA4392080D6892001543012217
:10210000520294438A6812022243104CA04207D123
:10211000C414A243CC68240222430615B24305E04E
:102120000B4CA04202D00B4CA04208D10324240344
:10213000A3434C6924011C438B691B012343436067
:10214000C5614968C163026270BD0000002C014096
:10215000004401400048014030B5026A01231B03DE
:102160009A430262056A4268C36973242402A34346
:102170000C6824021C4301235B039D438B681B03F3
:102180002B430A4DA84205D0094DA84202D0094D63
:10219000A84205D10125AD03AA434D69AD012A43EB
:1021A0004260C46149680164036230BD002C014093
:1021B000004401400048014030B5036A046A6408E5
:1021C000640004628469F025AC43120122430A24AE
:1021D000A3430B438261036230BD30B5036A102410
:1021E000A34303628469036A0F252D031203AC43E2
:1021F0002243A024A343090119438261016230BD37
:1022000010B5818CC90707D001684A6801235B04B7
:102210009A43836A1A434A60818C890707D501680B
:102220004A6801231B049A43C36A1A434A60818C9B
:10223000490707D501684A6801239B049A43036B49
:102240001A434A60818C090707D501684A6801234F
:10225000DB039A43436B1A434A60818CC90607D556
:102260000268916801231B039943836B19439160B2
:10227000818C890607D501688A6801235B039A432C
:10228000C36B1A438A60818C490612D503685A6869
:1022900001210905046C8A4322435A60026C8A4278
:1022A00007D10268516803235B059943436C1943C6
:1022B0005160818C090607D501684A680123DB0457
:1022C000806C9A4302434A6010BD0000F8B50026B6
:1022D0000446C666FEF7FAF80546144920688842A7
:1022E0001DD10068124F000709D501212B4600229D
:1022F00049052046009700F0B5F800280DD1206868
:10230000006840070BD501212B4600228905204695
:10231000009700F0A7F8002801D00320F8BD202086
:1023200060346072A07226720020F8BD003801404F
:10233000FFFFFF01F8B504462369A268E5691A4367
:10234000636910202B43002125681A432B680E4631
:102350003E4F3B4013432B6023685A6803252D03EF
:10236000AA43E5682A435A60236AA26925681A438A
:10237000AB680B273F02BB431343AB60344A25686D
:10238000954210D1334A126B9207920F0ED0012A58
:1023900005D0022A05D0032A09D1022007E0042033
:1023A00005E0082003E02C4A954200D100200122DC
:1023B000E369D203934224D100280CD002280DD027
:1023C000042813D0082817D001260A09120108078B
:1023D000400F10432FE0FEF78DFA09E061681F4AB5
:1023E00048088018FDF7A2FE81B2EEE7FEF792FAE8
:1023F000616840004A08F4E7616801224808120455
:10240000EFE7002808D0022809D004280BD00828BC
:1024100014D001263046F8BDFEF76CFA05E061687D
:102420000F4A48080CE0FEF775FA61684A08801800
:10243000FDF77CFE80B22168C860EBE76168480860
:102440008018FDF773FE80B2E860E3E7F369FFEF01
:102450000038014000100240004400400024F40015
:1024600000127A00FFB581B017460E4604460A9D59
:102470001DE0681C1BD0002D05D0FEF727F804993D
:10248000401AA84213D920680168FF22A132914363
:10249000016020688168490849008160202060341B
:1024A0006072A07200202072032005B0F0BD206889
:1024B000C1693046884304D00020B842D9D00020FA
:1024C000F3E70120F9E7FEE702E008C8121F08C1A0
:1024D000002AFAD170477047002001E001C1121FA5
:1024E000002AFBD17047000086B0FEF773F8FFF7B3
:1024F000B0FC314C616901204004014361616169B4
:102500000140059161694000014361616169851184
:10251000014009260591F606002229463046FDF7BE
:10252000CEFF0095002501270197029569463046A8
:102530000395FDF721FF60693843606160690022FF
:102540003840009011460A20FEF78CF80A20FEF76A
:102550007FF8FFF7CDFAFFF7D3F8FFF7EFF8FFF7B3
:102560006DFAFFF71BF9FFF7A1F9FFF70DFAFFF777
:1025700059F91248124921C11248486008601048B0
:10258000FDF7E6FF002800D0FEE700F0A1F80A20E2
:10259000FDF7E3FE0124E4030948FEF70BF82146AA
:1025A0003046FDF787FF0128F6D10548102206497D
:1025B0001030FEF78BFCEFE70010024000300040C7
:1025C00008000020FF0F0000B002002010B5C37B00
:1025D0007F221C063849002C03DA13400C68D31AFA
:1025E000E363837B1C0605D5344C5B065B0E2468D5
:1025F000D31A6363437B1C0604D55B065B0ED21AB9
:102600000B681A64027B130604D52D4B52061B6817
:10261000520E5A63C27A130603D552060B68520E45
:102620005A63837A274A1C0603D55B0614685B0E3F
:10263000A363437A1C0603D55B0614685B0EE36351
:10264000037A1C0603D55B0614685B0E2364C3790A
:102650001C0604D51C4C5B0624685B0E63638379FF
:102660001C0603D55B0612685B0E53634379174A59
:102670001C0603D55B0614685B0EE36303791C0636
:1026800003D55B0609685B0E8B63C1780B0603D527
:1026900049061368490E596381780B0603D549062C
:1026A0001368490E99634078010603D54006116806
:1026B000400E086410BD0000FC0000203C0100201A
:1026C0007C010020BC000020BC0100207C00002018
:1026D0001FB5802210216846FDF73EFD6846FFF7D2
:1026E00075FF3048FEF76AFE2E48FEF7A3FF002173
:1026F0002C48FEF7BBFF04212A48FEF7B7FF08214C
:102700002848FEF7B3FF0C212648FEF7AFFF264806
:10271000FEF754FE2448FEF78DFF00212248FEF705
:10272000A5FF04212048FEF7A1FF08211E48FEF75F
:102730009DFF0C211C48FEF799FF1C48FEF73EFE4A
:102740001A48FEF777FF00211848FEF78FFF042193
:102750001648FEF78BFF08211448FEF787FF0C216F
:102760001248FEF783FF1248FEF728FE1048FEF7D6
:1027700061FF00210E48FEF779FF0E48FEF71EFEAE
:102780000C48FEF757FF00210A48FEF76FFF0A4882
:10279000FEF714FE0848FEF74DFF00210648FEF73D
:1027A0009DFD1FBD7C000020BC000020FC0000201F
:1027B0003C0100207C010020BC0100200000000042
:1027C00000000000010203040607080900000000E1
:1027D00001020304F42700080000002008000000A4
:1027E000C8240008FC27000808000020B8060000E4
:0C27F000D82400080000000000127A004D
:04000005080000C12E
:00000001FF
